:020000000C945E
:1000020040010C9400000C9400000C9400000C942D
:1000120000000C9400000C9400000C9400000C945E
:1000220000000C9400000C9400000C9400000C944E
:1000320000000C9400000C9400000C9400000C943E
:1000420000000C9400000C9400000C9400000C942E
:1000520000005F4641484D49204D415348555249A1
:100062005F5F005F31313033313831303031207CE5
:100072002032443345415F00203E3E203E3E203E3A
:100082003E2000203C3C203C3C203C3C20003D3DAE
:100092004A414D204449474954414C20534159411A
:1000A2003D3D0053455454494E4720414C41524D29
:1000B200203031203A2034350057414B545520200E
:1000C20020203A253032753A253032753A253032C1
:1000D200750054414E4747414C20203A25643A2549
:1000E200643A2564004A414D203D20253032752076
:1000F2003A2025303275203A2025303275000D0025
:1001020044415445203D202564202F202564202F82
:100112002025642000414C41524D20414B54494618
:10012200212121003D4D4F444520434F4E54524F13
:100132004C204D4F544F523D003E3E3E56494120C9
:10014200504F54454E53494F3C3C3C004E696C6104
:10015200692052504D203D202564003C3C434F55C0
:100162004E54455220434C4F434B20574953450070
:10017200434C4F434B2057495345203E3E00252ECA
:100182003266000D0A002020203E3E3E56494120A4
:100192004755493C3C3C2020200020434C4F434BD8
:1001A2002057495345203D3E3E004D4F544F52206B
:1001B2004443205355444148204357203D3D3E3E51
:1001C2000D003C3C3D3D204D4F544F5220444320B6
:1001D2005355444148204343570D003D3E4B454350
:1001E200204D4F544F52204C414D42414E004B4501
:1001F2004345504154414E204D4F544F52204C41A3
:100202004D4241540D003D3E4B4543204D4F544F0E
:100212005220534544414E4720004B4543455041EF
:1002220054414E204D4F544F5220534544414E4766
:100232000D003D3E4B454345204D4F544F52204308
:1002420045504154004B454345504154414E204D89
:100252004F544F522043455041540D0080C02D4E03
:10026200414E000001002D4E414E00494E46000015
:100272000200B8015E020100BF0166020000F894AC
:10028200EE27ECBBF1E0FBBFEBBFE5BFF8E1F1BD50
:10029200E1BD8DE0A2E0BB27ED938A95E9F780E00E
:1002A20094E0A0E6ED930197E9F7E2E7F2E08591A9
:1002B2009591009761F0A591B59105901590BF01B8
:1002C200F00105900D920197E1F7FB01F0CFEFE508
:1002D200EDBFE4E0EEBFC0E6D1E00C947D01E88121
:1002E200E062E7B985E28A95F1F7369A349BFECF50
:1002F200349AE5B10C947804EFEFE5BBECE0E4BB93
:10030200ECEFE2BBEFEFE1BBD098D198D298D39A51
:10031200D89AD99ADA9ADB9AE0E0E2BDEFE6E5BD37
:10032200E0E0E4BDE3BDE9BFEBB9E8E1EAB9E6E844
:10033200E0BDE0E0E0BDE7E4E9B9E0E8E8B9E0E02B
:10034200E0BFE0E2E7B9E7E8E6B9E0E0EDB9E6BF31
:100352000E94170B0E942909E0E0EA93C9D1E4E167
:10036200EA930E943C040E942D09E4E5F0E00E9419
:1003720033090E943909E5E6F0E00E943309E0936F
:10038200B301A091B301AB3080F40E943E090E94F8
:1003920045090E944B090E9445090E945209E091B9
:1003A200B301EF5FE093B301ECCFEAE0E093B30176
:1003B200A091B301A13080F00E943E090E94580929
:1003C2000E944B090E9458090E945209E091B30110
:1003D200E150E093B301ECCFDB989498E4EFF1E0C5
:1003E2000E945E09949ADB9A0E94F603CA9978C029
:1003F200E8E0F0E0FA93EA93EBE0F0E0FA93EA93B4
:10040200EAE0F0E0FA93EA9390D1EDE0F0E0FA93BB
:10041200EA93ECE0F0E0FA93EA93E2EBF1E0FA938C
:10042200EA938FD10E9429090E94E503E0E9F0E0F6
:100432000E9462090E942D09E5EAF0E00E94330958
:100442000E9439090E946609EBEBF0E00E946B09F9
:100452000E9466090E9428040E9484090E9466097B
:10046200E4EDF0E00E948A090E9466090E942804D5
:100472000E94A409E7EEF0E00E946B090E94A40921
:100482000E94A9090E94AC090E94A909E2E0F1E0D8
:100492000E948A090E94A4090E94A9090E94AC092B
:1004A2000E947A040E94BB09E5E08E1618F0EEE283
:1004B200EB1509F013C00E94BE09E7E1F1E00E94CA
:1004C2003309EA93E3E0EA937FD1E7E1F1E00E94A6
:1004D2006209DB9894980E94BB0901C0949A06C1F4
:1004E200E6E0EA93FCDE6E2E7724F3016627772797
:1004F2000E94E10BA0E0B0E080E090E40E946B0C6F
:100502000E94A80B9E2EF301662777270E94E10B1B
:10051200A0E0B0E084EB92E40E946B0CE093B401A3
:10052200F093B5016093B6017093B7019D993CC0F9
:1005320093BC0E9429090E94C2090E942D09EBE383
:10054200F1E00E943309EA93E3E0EA933DD1E2EA63
:10055200F1E0FA93EA93EEE4F1E0FA93EA93F3011D
:10056200662777270E949D0D84E00E94C607289681
:10057200E2EAF1E0FA93EA936AD10E94BB099F9BF7
:1005820007C0929A93980E94BE09EDE5F1E008C077
:100592009E9B09C09298939A0E94BE09E2E7F1E0FD
:1005A200FA93EA935ED180C00E9429090E94C2098F
:1005B2000E942D09E8E8F1E00E946209E4E6F0E019
:1005C2000E945E090E9470044E2E5524E1E4F0E080
:1005D200E415F50569F49298939A0E94BE09ECE934
:1005E200F1E00E946209ECEAF1E00E94C7095CC0F6
:1005F200E2E4F0E0E415F50569F4929A93980E941A
:10060200BE09EDE5F1E00E946209E4ECF1E00E942E
:10061200C7094AC0E3E4F0E0E415F50569F4E4E152
:10062200E3BD0E948409EDEDF1E00E946209E0EF72
:10063200F1E00E94C70938C0E4E4F0E0E415F505F2
:1006420069F4E0E5E3BD0E948409E8E0F2E00E947B
:100652006209ECE1F2E00E94C70926C0E5E4F0E09D
:10066200E415F50569F4E6E9E3BD0E948409E4E3D3
:10067200F2E00E946209E7E4F2E00E94C70914C0B6
:10068200E6E4F0E0E415F50511F4959A0DC0E7E40F
:10069200F0E0E415F50511F4969A06C0E8E4F0E0FE
:1006A200E415F50509F4DB9AE4EFF1E00E945E0936
:1006B200E0E8F1E0FA93EA93E091B401F091B50138
:1006C2006091B6017091B7010E949D0D84E00E9475
:1006D200F6072696E5E8F1E0FA93EA9380E00E94B5
:1006E200F6072296EAE0F0E00E945E097FCEFFCF95
:1006F200EA81E370EA83E981E03019F0EA81E0619E
:10070200EA83E881E03019F0EA81E068EA830E9436
:10071200CB09E7E0EA930E94500BEA81EA930E9438
:10072200500B0E942B0B0C9499040E94CB09E0E021
:100732000E94D109A881B9810E94E109AC81BD81E1
:100742000BC00E94CB09E4E00E94D109AC81BD81BB
:100752000E94E109A881B981EC930E942B0B269695
:100762000895E881E07111F0C49A01C0C498E8814B
:10077200E07211F0C59A01C0C598E881E07411F0E9
:10078200C69A01C0C698E881E07811F0C79A01C004
:10079200C79887E08A95F1F7C29A82E18A95F1F7C4
:1007A200C29882E18A95F1F70C947804E881EA9381
:1007B200D8DFE881E295E883E881EA93D2DF88EB2B
:1007C2008A95F1F70C947804E881F0E0E854FE4F42
:1007D200E081A981EA0FEA93E9DFE981E093BC01B4
:1007E200E881E093BD0122960895E2E00E94F309B8
:1007F200ECE0EA93DBDFE1E00E94F309E0E0E09362
:10080200BD01E093BC010895A881AA3031F0E091C6
:10081200BE01A091BC01AE1770F0E0E0EA93E09156
:10082200BD01EF5FE093BD01EA93CEDFA881AA305C
:1008320011F40C947804E091BC01EF5FE093BC01E9
:10084200C09AE881EA93B2DFC0980C9478041A93B4
:100852000E94F90919F01A93D7DFFACF18810C9484
:1008620099041A930E94010A19F01A93CDDFFACF64
:1008720018810C949904BC9ABD9ABE9ABF9ABA9AEE
:10088200B89AB99AC298C098C198E881E093BE011B
:10089200E058E093BA01E881E054E093BB01E4E15F
:1008A200F0E00E945E090E940B0A0E940B0A0E945D
:1008B2000B0AE0E2EA9355DF84E191E00197F1F758
:1008C200E8E2EA9373DFE4E0EA9370DFE5E8EA93B3
:1008D2006DDFE6E0EA936ADF88DF0C9478045F9BC1
:1008E200FECFECB108955D9BFECFE881ECB9219675
:1008F20008951A930E94F90919F01A93F4DFFACFB6
:10090200EAE0EA93F0DF188113C01A930E94010A09
:1009120019F01A93E8DFFACFEAE0EA93E4DF1881EC
:1009220007C0EA81EA93DFDFA881B9810E94140A35
:10093200239608951A930A93AA81BB8112960E9464
:10094200890D309729F1AA81BB8114960E94890DE5
:100952008F01309761F00230E0E01E07C0F0F8012D
:1009620031978F01AA81BB811496ED93FC93AA81E2
:10097200BB8112960E94140A3197AC81A083AA818E
:10098200BB810E94890DFF2312F00E94140A06C047
:10099200AA81BB81EFEFFFEFED93FC9319810881F0
:1009A200259608952497E0E0E883E983E0E8EA8366
:1009B200EFE3EB830E94B50DEE85FF85EF3FAFEFCE
:1009C200FA0749F4E885F985FA93EA93E0E6F2E05A
:1009D2000E941A0AB8C0EF3FAFE7FA0749F4E88568
:1009E200F985FA93EA93E1E6F2E00E941A0AABC0B3
:1009F200AB85A73010F0E6E0EB871B85E12F1150A5
:100A0200E03019F00E941E0AF9CFEC85FD856E8553
:100A12007F850E94AF0D21F430E00E941E0A2EC095
:100A22003B850E942D0A09F010F40C9423050E94C4
:100A32001E0A0E942D0A28F00E94380A0E943D0ACE
:100A4200F8CF0DC00E942D0A40F40E94380A0E947D
:100A5200490A0E94500A3150F5CF0E941E0AEC85C5
:100A6200FD856E857F850E94550A0E94500A0E946C
:100A72002D0A20F00E94380A0E943D0A10E0EB8500
:100A8200E117A8F1AC81BD818E819F810E945C0A31
:100A92000E94550A0E949D0D0E947208EC83FD83FC
:100AA2006E837F830E94380A0E94B90C0E94A80BB1
:100AB2000E2F0E94630A0E946A0AFF276627772781
:100AC2000E94E10BAC81BD818E819F810E946B0CE3
:100AD2000E94380A0E946F0A0E94500AE12F1F5F8B
:100AE200E03069F60E94630AEEE2EC93C8CF0E94FE
:100AF200740A3197AA85A08330302CF43195A885E9
:100B0200B985EDE203C0A885B985EBE2EC930E94BA
:100B1200740A0E94740A3197BF01A32FEAE00E946F
:100B2200430DE05DDB01EC930E94740A3197BF0133
:100B3200A32FEAE00E946D0DE05DDB01EC93A88536
:100B4200B985E0E0EC930E94BC0D60960895EF97A2
:100B520061970E94B30D10E0FE01E85AFF4F019029
:100B6200F081E02DE887F987FE01EA5AFF4F0190F4
:100B7200F081E02DEE83FF83AE81BF81E0E0F0E003
:100B8200ED93FC93DE01A45ABF4F0E94140A3197E1
:100B9200E4912E2FE03011F40C94BD07E12FE030E8
:100BA20039F4253211F411E002C00E947A0AE3C13D
:100BB200E130C1F4253219F40E947A0ADBC112E055
:100BC200E0E0ED8B00E02D3211F401E0D4C12B32D4
:100BD20019F4EBE2ED8BCFC1203219F4E0E2ED8B98
:100BE200CAC102C0E23039F450E013E0203311F4FC
:100BF2000068C1C102C0E33091F4203310F02A33FF
:100C020008F007C0AAE05A9F502DE22FE0535E0F72
:100C1200B2C140E02E3211F414E0ADC10FC0E43095
:100C220099F4203310F02A3308F008C00062AAE0D9
:100C32004A9F402DE22FE0534E0F9DC12C3619F4EE
:100C4200026015E098C104C0E53011F00C94BC07B5
:100C5200E22FE33659F40E94830A0E948A0A0E9414
:100C6200830AA481AA930E94910A84C1E53411F0F7
:100C7200E53609F404C0E63611F00C948A06FE014A
:100C82007696EE87FF870E94990A0E948D0D0E9438
:100C9200A00A0E94A50AAD85AA2322F0AD89AB3233
:100CA20049F017C00E94A70A0E94750B0E94A00A71
:100CB200EDE2ED8B07FF05C0ED89EA930E94910AF0
:100CC20008C0EE85FF853196EE87FF873197AD89A3
:100CD200A08305FF46E0263661F40E94A70A0E941F
:100CE2009D0D4A93EB89FC89FA93EA930E94890845
:100CF2000BC00E94A70A0E949D0D4A932A93EC8979
:100D0200FD89FA93EA934EDEFE0176960E94AC0AC2
:100D12001EC0E33739F40E94A50A0E94B40A0E9459
:100D2200AC0A0EC0E037C1F40E94A50A0E94B40AC0
:100D3200EE87FF87FA93EA930E9438081E2F086015
:100D42000F77403011F0411708F001C0142F40E036
:100D5200E0E0EC8B30E06EC0E43611F0E93611F4DD
:100D6200046002C0E537A1F4EAE0EC8B01FF08C0A1
:100D7200E0E0FAEC6AE97BE30E94B90A1AE023C0D8
:100D8200E0E1F7E260E070E00E94B90A15E01BC002
:100D9200E83511F4086004C0E83711F00C94BB0781
:100DA200E0E1EC8B01FF08C0E0E0F0E060E070E120
:100DB2000E94B90A18E007C0E0E0F0E160E070E0EC
:100DC2000E94B90A14E0403011F00F7701C041E0EF
:100DD20001FF08C00E94A50A0E94990A14960E9467
:100DE2008D0D0FC002FF07C00E94A50A0E94B40A1F
:100DF2000E94300D06C00E94A50A0E94B40A66270E
:100E02007727EA87FB876C877D8702FF12C0AD8553
:100E1200AA2342F40E94A70A0E94220D0E94A00A5D
:100E2200EDE2ED8BED89E03019F01F5F4F5F01C0FD
:100E32000B7F342F00FD14C0151710F4351708F07E
:100E42000FC007FF08C002FF04C00B7F2D8911509D
:100E520001C020E301C020E20E947A0A5150ECCF87
:100E6200141790F4006102FF06C00E94BE0A09F046
:100E7200515011504150E0E3EA930E94910A5030E0
:100E820009F051504150ECCF312FEC89E030B9F4E8
:100E92003030A1F003FF06C0EE85FF852591EE8775
:100EA200FF8705C0AE85BF852D91AE87BF870E94A3
:100EB2007A0A503009F051503150EACF51C00E94A5
:100EC200D20A0E94480D2E2F2A3030F003FF02C0B2
:100ED200295C01C0295A01C0205D04FD21C02133D3
:100EE20060F4A889B9898A899B89A130E0E0BE07AC
:100EF200E0E08E07E0E09E0709F40BC0431740F4E0
:100F0200531710F000FF01C010C020E207FF08C015
:100F120020E3006102FF04C00E94BE0A09F05150A2
:100F22000E947A0A503009F0515031500E94D20A80
:100F32000E94790D0E94A00AEC89A889B9898A8940
:100F42009B89FF27662777270E94480D0E94B90ACE
:100F5200E889F9896A897B890E94AF0D09F0AFCFD0
:100F620000FF08C0503031F05150E0E2EA930E9495
:100F7200910AF8CF10E006CEAE81BF810E94890DA2
:100F82000E94BA0DEF966F960895FF92F82E26975B
:100F92000E94B50D0E94DB0A309719F4EFEFFFEFC4
:100FA2001FC0DE0116960E941E0D8D010E94DB0AF3
:100FB200EE83FF83E0E0E887E987DE011A960E946C
:100FC200E20AEBE9F4E0FA93EA93FE013A96FA9325
:100FD200EA93BDDD9F01AE81BF81E0E0EC93F901B0
:100FE2000E94BC0D2A96FF900895FF92F82E269734
:100FF2001A930A93DE0114960E941E0D8D01E0E001
:10100200EC83ED83EE83EF83DE0118960E94E20A01
:10101200E2E9F4E0FA93EA93FE013896FA93EA934E
:1010220096DD198108812896FF900895E881E2955E
:10103200EF70AE2FAA0FAA0FEA0FEE0FA991AF70B1
:10104200EA0F0895E991F991A991B991CD0105901D
:101052000D920020E1F7FC010895A991B991EE27C4
:10106200FF276D91662311F03196FBCF0895AA27D1
:10107200BB27E991F9910590002011F01196FBCF61
:10108200FD0108957B816A81F981E88177FB770F01
:1010920067FD7160972F9E5781F078F0983190F438
:1010A200AA27BB27882708948795B795A7959A956D
:1010B200D1F7EA23FB23682305C0E8947727EE27BC
:1010C200FF2766276F77769508F4606877F9A9910C
:1010D200B99189919991EA17FB076807790797FBFC
:1010E20008950E94EB0A0E949D0D0E9443080E94EF
:1010F200980D19F40E94EB0A09C0E6F70E94EB0A68
:10110200A0E0B0E080E89FE30E94140C24960895CA
:101112002497E0E0E883E983EA83EFE3EB831A9321
:101122000A93EB85FC85EF3FAFEFFA0729F455D21E
:10113200E8E6F2E07ED188C0EF3FAFE7FA0729F494
:101142004CD2E9E6F2E075D17FC0AC85AA2352F415
:10115200E985FA856B857C850E94750B43D247D25F
:10116200EDE2EC93A885A73010F0E6E0E887188559
:10117200E12F1150E03021F041D29DD144D2F8CF7D
:1011820047D20E941B0C2ED210E0E0E0F0E060E8B3
:101192007FE339D23DD20E94FE0C60F02FD278D18B
:1011A20032D21F5F173228F018D2EDE6F2E041D1B9
:1011B2004BC0F0CF103021F41AD2E0E3EC9320C000
:1011C200E12F1150E030E1F019D275D16DD10E94BA
:1011D2009D0D0E94720817D21BD20E94B90C0E9468
:1011E200A80B0E2F04D275D1F0E008D20E94300D68
:1011F2000E94E10B0E946B0C14D270D1F3D1E0CFAC
:10120200E885E030E9F0F3D1EEE2EC93E885E150D5
:10121200E887EF5FA9F005D23BD1E4D1E985FA85F1
:101222006B857C850E94A80B0E2FE1D152D1F0E094
:10123200F8D10E94300D0E94E10B50D1D3D1E6CFFC
:10124200AE81BF81E0E0EC93198108812D9608956B
:10125200E0E0EA93EA930895E0E0EA93E1E0EA93BA
:101262000C94E503FA93EA930E943204E0E00895B5
:10127200EA93E2E0EA930C94E503E091B301EA9386
:10128200E0E0EA930C94E503EAE7F0E0FA93EA93EC
:101292000C943204E091B301EA93E3E0EA930C94F4
:1012A200E503E2E3F0E0FA93EA930C94690BE5E8D4
:1012B200F0E0FA93EA930C943204FA93EA930C94D2
:1012C200690BFA93EA930C943204E0E6F1E0FA93A4
:1012D200EA930895FA93EA93E82DFF276627772782
:1012E2000E949D0DEB2DFF27662777270E949D0DFB
:1012F200EA2DFF27662777270E949D0D8CE00E942A
:10130200C60760960895E0E0EA93E3E0EA930C945E
:10131200E503FA93EA93ED2DFF27662777270E94CC
:101322009D0DEC2DFF27662777270E949D0DE091EA
:10133200B201FF27662777270E949D0D8CE00E944D
:10134200C60760960895E1E8F1E0FA93EA930895FA
:101352000E947A04F8CFE0E0F1E0FA93EA93EA2DF2
:10136200FF27662777270E949D0D84E00E94C6070B
:101372002896E9CFE8EEF3E0A0CF0E94F603E0E082
:1013820077CF0E94E503E6E2F1E09BCFFA93EA937E
:101392000C9486040E941C0BE0EDEA930C94500B13
:1013A200EA930E94500B0E941C0BE1EDEA930E940B
:1013B200500BE1E0EA930E94350BEA930C94170874
:1013C200EC93E1E0EA930E94350BEA930E9417083E
:1013D200AA81BB81EC93E0E0EA930E94350BEA9389
:1013E2000C941708EA930E94D703E3E0F0E065CF7C
:1013F200A981BA81ED91A983BA831E2FE0300895A5
:10140200E981FA813196E983FA833197E4911E2FBB
:10141200E0300895E0E3EA930E94B20384E191E0B0
:101422000197F1F70895ED91FD913196FE93EE93B8
:101432000895FA93EA930C942308AC81BD818E81BE
:101442009F81E0E0F0E060E271E40E946B0CEC83CB
:10145200FD836E837F830895EC81FD816E817F81A0
:10146200AC85BD858E859F850E94FE0C0895AC8556
:10147200BD858E859F850895EDECFCEC6CEC7DE3DB
:101482000E946B0CEC87FD876E877F873F5F089514
:10149200E0E0F0E060E271E40E946B0C0895EC87FA
:1014A200FD876E877F870895A0E0B0E080E09FE32C
:1014B2000E941B0C0895EDECFCEC6CEC7DE30E94A9
:1014C2006B0C0895A885B9851196A887B9871197DD
:1014D2000895E02FE05DEC93E02F08950E94A20DA5
:1014E2000E94140C0895E885F9853196E887F987FA
:1014F20008952A93EF81F885FA93EA93EB85FC85A8
:1015020009950895FE01E65AFF4F0190F081E02D02
:1015120008953497DE01A65ABF4FED93FC930895C8
:10152200EF81F885FA93EA93EB85FC850995089596
:10153200DE01A65ABF4F0D90BC91A02D0895EA87F7
:10154200FB876C877D870895DDDFE3CFEA85FB8526
:101552006C857D850895EE87FF87FA93EA930E9452
:101562002E081E2F0895E4DF14960E94890D089517
:10157200E88BF98B6A8B7B8B08950B7FED89EA935D
:10158200FE01E95AFF4F0190F081E02DFA93EA93B0
:10159200FE01E55AFF4F0190F081E02D0995503090
:1015A2000895E889F9896A897B89AA85BB858C8532
:1015B2009D850895DE011C960E941E0D0E94890DD4
:1015C20008950E941E0D0E94890DFA93EA931A93C0
:1015D2000A9308950E94930D0895EE81FF81FA9374
:1015E200EA930895E987FA876B877C870895AE812D
:1015F200BF811196AE83BF8311970895AA81BB81E3
:101602008C819D810895EA83FB836C837D83089599
:10161200EA81FB816C817D81A985BA858B859C8558
:101622000895A985BA858B859C850895A898A9985F
:10163200A09AA19815C0A198A098EE270000999BA6
:101642000895989B089504D0A19A02D0A09AE1E04F
:1016520062E107C0A19AA09A03D0A098F9DFA198ED
:1016620065E26A95F1F7089578E0A098F1DF989B1A
:10167200FECFEEDF889499990894A09AF1DFEE1FCD
:101682007A9599F77991772311F4A19801C0A19ADB
:10169200DFDFA098E5DFA09ADBDFA198D9CFE9913F
:1016A20078E0EE0F10F4A19801C0A19AD9DFA098BA
:1016B200CFDF989BFECFCCDFA09A7A9591F7A198C5
:1016C200C7DFA098CDDFE1E09999EE27A09AC0CFBD
:1016D200E991F991309639F08DEC9AE00197F1F7A2
:1016E200A8953197C9F7089530976040704009F086
:1016F20070580895552342F4503811F4E0FF04C0A5
:101702003196691F791F6BF050E8572711F45F93E8
:10171200CFC05F3F31F0660F000C57956795752F6C
:1017220008955F9300200AF0CFC0C8C050E8192E78
:101732001522880F991F9527550F879550E8072E78
:101742000522660F771F7527550F679508956894D0
:1017520001C0E8945F93F2DF703818F07F3F08F41D
:10176200A7C056E1571BAAF4519558300EF45930D0
:1017720030F0EFEFFFEF6FEF7FE777F91AC07727CF
:101782005523B9F0EE0FFF1F661F771F5A95D1F749
:1017920010C07727583028F0EF2FF62F672F5850B8
:1017A200F9CF552331F076956795F795E7955A95D8
:1017B200D1F700200AF445D15F910895689401C0E1
:1017C200E894309760407040B1F0002426F077230F
:1017D20012F4009436D1172E7EE1112032F07A9560
:1017E200EE0FFF1F661F111CF9CFEF2FF62F612D91
:1017F2005F938ADF5F9108954F93AF01FD01DA0194
:10180200AB01BC01CA01402D012C142E4F91089549
:10181200EA0FFB1F681F0895E095F0956095EF5F52
:10182200FF4F6F4F08955F9381DF903871F150E859
:10183200152604C05F937ADF903839F1703821F1B0
:10184200572F591B2BF112F4D7DFFACF583118F06A
:10185200AA27BB278827583028F0AB2FB82F882714
:101862005850F9CF552329F08695B795A7955A95E3
:10187200D9F7502D512572F0CBDF38F46795F795E3
:10188200E795739513F420C0B7DF3EDF5F910895AB
:10189200D8F7FBCFEA1BFB0B680B51F010F4009456
:1018A200BBDF662392F3EE0FFF1F661F7A95CBF71D
:1018B200EE27FF27662777275F910895EFEFFFEF67
:1018C2006FE77FEF5F910895EFEFFFEF6FE77FE73D
:1018D2005F9108955F932ADF703851F3903841F396
:1018E20001240894791F23F41CF300203AF3ECCF6F
:1018F2000F921F932F933F934F93112722279927DC
:10190200689FA0018F9F302D410D591F6B9F300D95
:10191200411D591F8E9F27D0BF9F25D06A9F23D07C
:10192200BE9F1DD0AF9F1BD0AE9F110D291F391F27
:10193200491F591FE32FF42F652F522F4F913F91CB
:101942002F911F910F9066232AF0550FEE1FFF1F54
:10195200661F02C073954BF2CDDE5F910895100DA4
:10196200211D391F02C0200D311D491F591F089525
:101972005F93DCDE703821F411200AF49FCFA4CFEC
:10198200903809F495CF01240894970B1BF4D4F3F3
:101992000020F3CF792F1F932F933F934F9311245E
:1019A2001127222733274427552790E2AE17BF0776
:1019B2008607410730F0AE1BBF0B860B410B089424
:1019C20001C08894551F221F331F111CAA1FBB1F61
:1019D200881F441F9A9551F7F901612D4F913F914C
:1019E2002F911F91662332F0550FEE1FFF1F661FC6
:1019F2007A9543F27FDE5F91089599239AF07723D7
:101A020042F0971748F029F4AE17BF07860720F077
:101A120031F09894889408959894089408951894AD
:101A2200889408957723C2F7971798F3A9F7EA17CE
:101A3200FB07680788F399F3ECCF0024AF0DB01DC4
:101A42000895F09560957095E195FF4F6F4F7F4F28
:101A52000895FE2FFF0FFF0B6F2F7F2F08956F2F1B
:101A6200660F660B762F0895002498E0AA0F001CDB
:101A72000E1A10F40E0E01C0A1609A95B9F7EA2F62
:101A8200A02D089539D0F0DF0EF4E19508953F932B
:101A92004F935F93002411244427552730E2AA0F65
:101AA200BB1F881F991F001C111C441F551F0E1AB3
:101AB2001F0A460B570B28F40E0E1F1E461F571FF8
:101AC20001C0A1603A9559F7FD01BC01D001CA01DC
:101AD2005F914F913F910895E894A7FF02C0A195AD
:101AE2006894E7FDE195C0DFEA2F0EF4E1950895D1
:101AF200CEDFFD01BC010895E894E7FF02C0E19545
:101B02006894A7FF04C0A19500F8039400FA089511
:101B1200ED91FC9111970895ED91FD916D917C915C
:101B220013970895E881F9816A817B810895E8839A
:101B3200F9836A837B8308957A936A93FA93EA938B
:101B42000895182E862F612D192E972F712D1B2E79
:101B5200BF2FF12D1A2EAE2FE12D08953097604040
:101B6200704008955A934A933A932A931A930A9388
:101B720008955D814C813B812A81198108810895F4
:00000001FF
